{
	"contracts/GetBTCPrice.sol": {
		"WBTCUSDTPriceChecker": {
			"abi": [
				{
					"inputs": [
						{
							"internalType": "address",
							"name": "_wbtcAddress",
							"type": "address"
						},
						{
							"internalType": "address",
							"name": "_usdcAddress",
							"type": "address"
						},
						{
							"internalType": "address",
							"name": "_uniswapPair",
							"type": "address"
						}
					],
					"stateMutability": "nonpayable",
					"type": "constructor"
				},
				{
					"inputs": [],
					"name": "getWBTCPriceInUSDT",
					"outputs": [
						{
							"internalType": "uint256",
							"name": "",
							"type": "uint256"
						}
					],
					"stateMutability": "view",
					"type": "function"
				},
				{
					"inputs": [],
					"name": "uniswapPair",
					"outputs": [
						{
							"internalType": "address",
							"name": "",
							"type": "address"
						}
					],
					"stateMutability": "view",
					"type": "function"
				},
				{
					"inputs": [],
					"name": "usdcAddress",
					"outputs": [
						{
							"internalType": "address",
							"name": "",
							"type": "address"
						}
					],
					"stateMutability": "view",
					"type": "function"
				},
				{
					"inputs": [],
					"name": "wbtcAddress",
					"outputs": [
						{
							"internalType": "address",
							"name": "",
							"type": "address"
						}
					],
					"stateMutability": "view",
					"type": "function"
				}
			],
			"devdoc": {
				"kind": "dev",
				"methods": {},
				"version": 1
			},
			"evm": {
				"assembly": "    /* \"contracts/GetBTCPrice.sol\":384:1511  contract WBTCUSDTPriceChecker {... */\n  mstore(0x40, 0xe0)\n    /* \"contracts/GetBTCPrice.sol\":547:770  constructor(... */\n  callvalue\n  dup1\n  iszero\n  tag_1\n  jumpi\n  0x00\n  dup1\n  revert\ntag_1:\n  pop\n  mload(0x40)\n  sub(codesize, bytecodeSize)\n  dup1\n  bytecodeSize\n  dup4\n  codecopy\n  dup2\n  dup2\n  add\n  0x40\n  mstore\n  dup2\n  add\n  swap1\n  tag_2\n  swap2\n  swap1\n  tag_3\n  jump\t// in\ntag_2:\n    /* \"contracts/GetBTCPrice.sol\":679:691  _wbtcAddress */\n  dup3\n    /* \"contracts/GetBTCPrice.sol\":665:691  wbtcAddress = _wbtcAddress */\n  0xffffffffffffffffffffffffffffffffffffffff\n  and\n  0x80\n  dup2\n  0xffffffffffffffffffffffffffffffffffffffff\n  and\n  dup2\n  mstore\n  pop\n  pop\n    /* \"contracts/GetBTCPrice.sol\":715:727  _usdcAddress */\n  dup2\n    /* \"contracts/GetBTCPrice.sol\":701:727  usdcAddress = _usdcAddress */\n  0xffffffffffffffffffffffffffffffffffffffff\n  and\n  0xa0\n  dup2\n  0xffffffffffffffffffffffffffffffffffffffff\n  and\n  dup2\n  mstore\n  pop\n  pop\n    /* \"contracts/GetBTCPrice.sol\":751:763  _uniswapPair */\n  dup1\n    /* \"contracts/GetBTCPrice.sol\":737:763  uniswapPair = _uniswapPair */\n  0xffffffffffffffffffffffffffffffffffffffff\n  and\n  0xc0\n  dup2\n  0xffffffffffffffffffffffffffffffffffffffff\n  and\n  dup2\n  mstore\n  pop\n  pop\n    /* \"contracts/GetBTCPrice.sol\":547:770  constructor(... */\n  pop\n  pop\n  pop\n    /* \"contracts/GetBTCPrice.sol\":384:1511  contract WBTCUSDTPriceChecker {... */\n  jump(tag_6)\n    /* \"#utility.yul\":88:205   */\ntag_8:\n    /* \"#utility.yul\":197:198   */\n  0x00\n    /* \"#utility.yul\":194:195   */\n  dup1\n    /* \"#utility.yul\":187:199   */\n  revert\n    /* \"#utility.yul\":334:460   */\ntag_10:\n    /* \"#utility.yul\":371:378   */\n  0x00\n    /* \"#utility.yul\":411:453   */\n  0xffffffffffffffffffffffffffffffffffffffff\n    /* \"#utility.yul\":404:409   */\n  dup3\n    /* \"#utility.yul\":400:454   */\n  and\n    /* \"#utility.yul\":389:454   */\n  swap1\n  pop\n    /* \"#utility.yul\":334:460   */\n  swap2\n  swap1\n  pop\n  jump\t// out\n    /* \"#utility.yul\":466:562   */\ntag_11:\n    /* \"#utility.yul\":503:510   */\n  0x00\n    /* \"#utility.yul\":532:556   */\n  tag_20\n    /* \"#utility.yul\":550:555   */\n  dup3\n    /* \"#utility.yul\":532:556   */\n  tag_10\n  jump\t// in\ntag_20:\n    /* \"#utility.yul\":521:556   */\n  swap1\n  pop\n    /* \"#utility.yul\":466:562   */\n  swap2\n  swap1\n  pop\n  jump\t// out\n    /* \"#utility.yul\":568:690   */\ntag_12:\n    /* \"#utility.yul\":641:665   */\n  tag_22\n    /* \"#utility.yul\":659:664   */\n  dup2\n    /* \"#utility.yul\":641:665   */\n  tag_11\n  jump\t// in\ntag_22:\n    /* \"#utility.yul\":634:639   */\n  dup2\n    /* \"#utility.yul\":631:666   */\n  eq\n    /* \"#utility.yul\":621:684   */\n  tag_23\n  jumpi\n    /* \"#utility.yul\":680:681   */\n  0x00\n    /* \"#utility.yul\":677:678   */\n  dup1\n    /* \"#utility.yul\":670:682   */\n  revert\n    /* \"#utility.yul\":621:684   */\ntag_23:\n    /* \"#utility.yul\":568:690   */\n  pop\n  jump\t// out\n    /* \"#utility.yul\":696:839   */\ntag_13:\n    /* \"#utility.yul\":753:758   */\n  0x00\n    /* \"#utility.yul\":784:790   */\n  dup2\n    /* \"#utility.yul\":778:791   */\n  mload\n    /* \"#utility.yul\":769:791   */\n  swap1\n  pop\n    /* \"#utility.yul\":800:833   */\n  tag_25\n    /* \"#utility.yul\":827:832   */\n  dup2\n    /* \"#utility.yul\":800:833   */\n  tag_12\n  jump\t// in\ntag_25:\n    /* \"#utility.yul\":696:839   */\n  swap3\n  swap2\n  pop\n  pop\n  jump\t// out\n    /* \"#utility.yul\":845:1508   */\ntag_3:\n    /* \"#utility.yul\":933:939   */\n  0x00\n    /* \"#utility.yul\":941:947   */\n  dup1\n    /* \"#utility.yul\":949:955   */\n  0x00\n    /* \"#utility.yul\":998:1000   */\n  0x60\n    /* \"#utility.yul\":986:995   */\n  dup5\n    /* \"#utility.yul\":977:984   */\n  dup7\n    /* \"#utility.yul\":973:996   */\n  sub\n    /* \"#utility.yul\":969:1001   */\n  slt\n    /* \"#utility.yul\":966:1085   */\n  iszero\n  tag_27\n  jumpi\n    /* \"#utility.yul\":1004:1083   */\n  tag_28\n  tag_8\n  jump\t// in\ntag_28:\n    /* \"#utility.yul\":966:1085   */\ntag_27:\n    /* \"#utility.yul\":1124:1125   */\n  0x00\n    /* \"#utility.yul\":1149:1213   */\n  tag_29\n    /* \"#utility.yul\":1205:1212   */\n  dup7\n    /* \"#utility.yul\":1196:1202   */\n  dup3\n    /* \"#utility.yul\":1185:1194   */\n  dup8\n    /* \"#utility.yul\":1181:1203   */\n  add\n    /* \"#utility.yul\":1149:1213   */\n  tag_13\n  jump\t// in\ntag_29:\n    /* \"#utility.yul\":1139:1213   */\n  swap4\n  pop\n    /* \"#utility.yul\":1095:1223   */\n  pop\n    /* \"#utility.yul\":1262:1264   */\n  0x20\n    /* \"#utility.yul\":1288:1352   */\n  tag_30\n    /* \"#utility.yul\":1344:1351   */\n  dup7\n    /* \"#utility.yul\":1335:1341   */\n  dup3\n    /* \"#utility.yul\":1324:1333   */\n  dup8\n    /* \"#utility.yul\":1320:1342   */\n  add\n    /* \"#utility.yul\":1288:1352   */\n  tag_13\n  jump\t// in\ntag_30:\n    /* \"#utility.yul\":1278:1352   */\n  swap3\n  pop\n    /* \"#utility.yul\":1233:1362   */\n  pop\n    /* \"#utility.yul\":1401:1403   */\n  0x40\n    /* \"#utility.yul\":1427:1491   */\n  tag_31\n    /* \"#utility.yul\":1483:1490   */\n  dup7\n    /* \"#utility.yul\":1474:1480   */\n  dup3\n    /* \"#utility.yul\":1463:1472   */\n  dup8\n    /* \"#utility.yul\":1459:1481   */\n  add\n    /* \"#utility.yul\":1427:1491   */\n  tag_13\n  jump\t// in\ntag_31:\n    /* \"#utility.yul\":1417:1491   */\n  swap2\n  pop\n    /* \"#utility.yul\":1372:1501   */\n  pop\n    /* \"#utility.yul\":845:1508   */\n  swap3\n  pop\n  swap3\n  pop\n  swap3\n  jump\t// out\n    /* \"contracts/GetBTCPrice.sol\":384:1511  contract WBTCUSDTPriceChecker {... */\ntag_6:\n  mload(0x80)\n  mload(0xa0)\n  mload(0xc0)\n  codecopy(0x00, dataOffset(sub_0), dataSize(sub_0))\n  0x00\n  assignImmutable(\"0x58a280f74f57bf051c40f060139dc747e015be52f68c57e2c4ab2e4bd4146f43\")\n  0x00\n  assignImmutable(\"0x81e080ffc23e8b8d44dd829bc823229e92b893eb1d8f624419d3f5682eb97fc3\")\n  0x00\n  assignImmutable(\"0x1572b593c53d839d80004aa4b8c51211864104f06ace9e22be9c4365b50655ea\")\n  return(0x00, dataSize(sub_0))\nstop\n\nsub_0: assembly {\n        /* \"contracts/GetBTCPrice.sol\":384:1511  contract WBTCUSDTPriceChecker {... */\n      mstore(0x40, 0x80)\n      callvalue\n      dup1\n      iszero\n      tag_1\n      jumpi\n      0x00\n      dup1\n      revert\n    tag_1:\n      pop\n      jumpi(tag_2, lt(calldatasize, 0x04))\n      shr(0xe0, calldataload(0x00))\n      dup1\n      0x02d45457\n      eq\n      tag_3\n      jumpi\n      dup1\n      0x61a2ac39\n      eq\n      tag_4\n      jumpi\n      dup1\n      0x915220a1\n      eq\n      tag_5\n      jumpi\n      dup1\n      0xc816841b\n      eq\n      tag_6\n      jumpi\n    tag_2:\n      0x00\n      dup1\n      revert\n        /* \"contracts/GetBTCPrice.sol\":462:498  address public immutable usdcAddress */\n    tag_3:\n      tag_7\n      tag_8\n      jump\t// in\n    tag_7:\n      mload(0x40)\n      tag_9\n      swap2\n      swap1\n      tag_10\n      jump\t// in\n    tag_9:\n      mload(0x40)\n      dup1\n      swap2\n      sub\n      swap1\n      return\n        /* \"contracts/GetBTCPrice.sol\":420:456  address public immutable wbtcAddress */\n    tag_4:\n      tag_11\n      tag_12\n      jump\t// in\n    tag_11:\n      mload(0x40)\n      tag_13\n      swap2\n      swap1\n      tag_10\n      jump\t// in\n    tag_13:\n      mload(0x40)\n      dup1\n      swap2\n      sub\n      swap1\n      return\n        /* \"contracts/GetBTCPrice.sol\":776:1509  function getWBTCPriceInUSDT() external view returns (uint256) {... */\n    tag_5:\n      tag_14\n      tag_15\n      jump\t// in\n    tag_14:\n      mload(0x40)\n      tag_16\n      swap2\n      swap1\n      tag_17\n      jump\t// in\n    tag_16:\n      mload(0x40)\n      dup1\n      swap2\n      sub\n      swap1\n      return\n        /* \"contracts/GetBTCPrice.sol\":504:540  address public immutable uniswapPair */\n    tag_6:\n      tag_18\n      tag_19\n      jump\t// in\n    tag_18:\n      mload(0x40)\n      tag_20\n      swap2\n      swap1\n      tag_10\n      jump\t// in\n    tag_20:\n      mload(0x40)\n      dup1\n      swap2\n      sub\n      swap1\n      return\n        /* \"contracts/GetBTCPrice.sol\":462:498  address public immutable usdcAddress */\n    tag_8:\n      immutable(\"0x81e080ffc23e8b8d44dd829bc823229e92b893eb1d8f624419d3f5682eb97fc3\")\n      dup2\n      jump\t// out\n        /* \"contracts/GetBTCPrice.sol\":420:456  address public immutable wbtcAddress */\n    tag_12:\n      immutable(\"0x1572b593c53d839d80004aa4b8c51211864104f06ace9e22be9c4365b50655ea\")\n      dup2\n      jump\t// out\n        /* \"contracts/GetBTCPrice.sol\":776:1509  function getWBTCPriceInUSDT() external view returns (uint256) {... */\n    tag_15:\n        /* \"contracts/GetBTCPrice.sol\":829:836  uint256 */\n      0x00\n        /* \"contracts/GetBTCPrice.sol\":848:871  IUniswapV2Pair swapPair */\n      dup1\n        /* \"contracts/GetBTCPrice.sol\":889:900  uniswapPair */\n      immutable(\"0x58a280f74f57bf051c40f060139dc747e015be52f68c57e2c4ab2e4bd4146f43\")\n        /* \"contracts/GetBTCPrice.sol\":848:901  IUniswapV2Pair swapPair = IUniswapV2Pair(uniswapPair) */\n      swap1\n      pop\n        /* \"contracts/GetBTCPrice.sol\":913:929  uint112 reserve0 */\n      0x00\n        /* \"contracts/GetBTCPrice.sol\":931:947  uint112 reserve1 */\n      dup1\n        /* \"contracts/GetBTCPrice.sol\":953:961  swapPair */\n      dup3\n        /* \"contracts/GetBTCPrice.sol\":953:973  swapPair.getReserves */\n      0xffffffffffffffffffffffffffffffffffffffff\n      and\n      0x0902f1ac\n        /* \"contracts/GetBTCPrice.sol\":953:975  swapPair.getReserves() */\n      mload(0x40)\n      dup2\n      0xffffffff\n      and\n      0xe0\n      shl\n      dup2\n      mstore\n      0x04\n      add\n      0x60\n      mload(0x40)\n      dup1\n      dup4\n      sub\n      dup2\n      dup7\n      gas\n      staticcall\n      iszero\n      dup1\n      iszero\n      tag_23\n      jumpi\n      returndatasize\n      0x00\n      dup1\n      returndatacopy\n      revert(0x00, returndatasize)\n    tag_23:\n      pop\n      pop\n      pop\n      pop\n      mload(0x40)\n      returndatasize\n      not(0x1f)\n      0x1f\n      dup3\n      add\n      and\n      dup3\n      add\n      dup1\n      0x40\n      mstore\n      pop\n      dup2\n      add\n      swap1\n      tag_24\n      swap2\n      swap1\n      tag_25\n      jump\t// in\n    tag_24:\n        /* \"contracts/GetBTCPrice.sol\":912:975  (uint112 reserve0, uint112 reserve1, ) = swapPair.getReserves() */\n      pop\n      swap2\n      pop\n      swap2\n      pop\n        /* \"contracts/GetBTCPrice.sol\":986:1000  address token0 */\n      0x00\n        /* \"contracts/GetBTCPrice.sol\":1003:1011  swapPair */\n      dup4\n        /* \"contracts/GetBTCPrice.sol\":1003:1018  swapPair.token0 */\n      0xffffffffffffffffffffffffffffffffffffffff\n      and\n      0x0dfe1681\n        /* \"contracts/GetBTCPrice.sol\":1003:1020  swapPair.token0() */\n      mload(0x40)\n      dup2\n      0xffffffff\n      and\n      0xe0\n      shl\n      dup2\n      mstore\n      0x04\n      add\n      0x20\n      mload(0x40)\n      dup1\n      dup4\n      sub\n      dup2\n      dup7\n      gas\n      staticcall\n      iszero\n      dup1\n      iszero\n      tag_27\n      jumpi\n      returndatasize\n      0x00\n      dup1\n      returndatacopy\n      revert(0x00, returndatasize)\n    tag_27:\n      pop\n      pop\n      pop\n      pop\n      mload(0x40)\n      returndatasize\n      not(0x1f)\n      0x1f\n      dup3\n      add\n      and\n      dup3\n      add\n      dup1\n      0x40\n      mstore\n      pop\n      dup2\n      add\n      swap1\n      tag_28\n      swap2\n      swap1\n      tag_29\n      jump\t// in\n    tag_28:\n        /* \"contracts/GetBTCPrice.sol\":986:1020  address token0 = swapPair.token0() */\n      swap1\n      pop\n        /* \"contracts/GetBTCPrice.sol\":1030:1044  address token1 */\n      0x00\n        /* \"contracts/GetBTCPrice.sol\":1047:1055  swapPair */\n      dup5\n        /* \"contracts/GetBTCPrice.sol\":1047:1062  swapPair.token1 */\n      0xffffffffffffffffffffffffffffffffffffffff\n      and\n      0xd21220a7\n        /* \"contracts/GetBTCPrice.sol\":1047:1064  swapPair.token1() */\n      mload(0x40)\n      dup2\n      0xffffffff\n      and\n      0xe0\n      shl\n      dup2\n      mstore\n      0x04\n      add\n      0x20\n      mload(0x40)\n      dup1\n      dup4\n      sub\n      dup2\n      dup7\n      gas\n      staticcall\n      iszero\n      dup1\n      iszero\n      tag_31\n      jumpi\n      returndatasize\n      0x00\n      dup1\n      returndatacopy\n      revert(0x00, returndatasize)\n    tag_31:\n      pop\n      pop\n      pop\n      pop\n      mload(0x40)\n      returndatasize\n      not(0x1f)\n      0x1f\n      dup3\n      add\n      and\n      dup3\n      add\n      dup1\n      0x40\n      mstore\n      pop\n      dup2\n      add\n      swap1\n      tag_32\n      swap2\n      swap1\n      tag_29\n      jump\t// in\n    tag_32:\n        /* \"contracts/GetBTCPrice.sol\":1030:1064  address token1 = swapPair.token1() */\n      swap1\n      pop\n        /* \"contracts/GetBTCPrice.sol\":1089:1100  wbtcAddress */\n      immutable(\"0x1572b593c53d839d80004aa4b8c51211864104f06ace9e22be9c4365b50655ea\")\n        /* \"contracts/GetBTCPrice.sol\":1079:1100  token0 == wbtcAddress */\n      0xffffffffffffffffffffffffffffffffffffffff\n      and\n        /* \"contracts/GetBTCPrice.sol\":1079:1085  token0 */\n      dup3\n        /* \"contracts/GetBTCPrice.sol\":1079:1100  token0 == wbtcAddress */\n      0xffffffffffffffffffffffffffffffffffffffff\n      and\n      eq\n        /* \"contracts/GetBTCPrice.sol\":1079:1125  token0 == wbtcAddress && token1 == usdcAddress */\n      dup1\n      iszero\n      tag_33\n      jumpi\n      pop\n        /* \"contracts/GetBTCPrice.sol\":1114:1125  usdcAddress */\n      immutable(\"0x81e080ffc23e8b8d44dd829bc823229e92b893eb1d8f624419d3f5682eb97fc3\")\n        /* \"contracts/GetBTCPrice.sol\":1104:1125  token1 == usdcAddress */\n      0xffffffffffffffffffffffffffffffffffffffff\n      and\n        /* \"contracts/GetBTCPrice.sol\":1104:1110  token1 */\n      dup2\n        /* \"contracts/GetBTCPrice.sol\":1104:1125  token1 == usdcAddress */\n      0xffffffffffffffffffffffffffffffffffffffff\n      and\n      eq\n        /* \"contracts/GetBTCPrice.sol\":1079:1125  token0 == wbtcAddress && token1 == usdcAddress */\n    tag_33:\n        /* \"contracts/GetBTCPrice.sol\":1075:1503  if (token0 == wbtcAddress && token1 == usdcAddress) {... */\n      iszero\n      tag_34\n      jumpi\n        /* \"contracts/GetBTCPrice.sol\":1231:1239  reserve0 */\n      dup4\n        /* \"contracts/GetBTCPrice.sol\":1223:1240  uint256(reserve0) */\n      0xffffffffffffffffffffffffffff\n      and\n        /* \"contracts/GetBTCPrice.sol\":1215:1219  1e18 */\n      0x0de0b6b3a7640000\n        /* \"contracts/GetBTCPrice.sol\":1203:1211  reserve1 */\n      dup5\n        /* \"contracts/GetBTCPrice.sol\":1195:1212  uint256(reserve1) */\n      0xffffffffffffffffffffffffffff\n      and\n        /* \"contracts/GetBTCPrice.sol\":1195:1219  uint256(reserve1) * 1e18 */\n      tag_35\n      swap2\n      swap1\n      tag_36\n      jump\t// in\n    tag_35:\n        /* \"contracts/GetBTCPrice.sol\":1194:1240  (uint256(reserve1) * 1e18) / uint256(reserve0) */\n      tag_37\n      swap2\n      swap1\n      tag_38\n      jump\t// in\n    tag_37:\n        /* \"contracts/GetBTCPrice.sol\":1187:1240  return (uint256(reserve1) * 1e18) / uint256(reserve0) */\n      swap6\n      pop\n      pop\n      pop\n      pop\n      pop\n      pop\n      jump(tag_21)\n        /* \"contracts/GetBTCPrice.sol\":1075:1503  if (token0 == wbtcAddress && token1 == usdcAddress) {... */\n    tag_34:\n        /* \"contracts/GetBTCPrice.sol\":1271:1282  usdcAddress */\n      immutable(\"0x81e080ffc23e8b8d44dd829bc823229e92b893eb1d8f624419d3f5682eb97fc3\")\n        /* \"contracts/GetBTCPrice.sol\":1261:1282  token0 == usdcAddress */\n      0xffffffffffffffffffffffffffffffffffffffff\n      and\n        /* \"contracts/GetBTCPrice.sol\":1261:1267  token0 */\n      dup3\n        /* \"contracts/GetBTCPrice.sol\":1261:1282  token0 == usdcAddress */\n      0xffffffffffffffffffffffffffffffffffffffff\n      and\n      eq\n        /* \"contracts/GetBTCPrice.sol\":1261:1307  token0 == usdcAddress && token1 == wbtcAddress */\n      dup1\n      iszero\n      tag_40\n      jumpi\n      pop\n        /* \"contracts/GetBTCPrice.sol\":1296:1307  wbtcAddress */\n      immutable(\"0x1572b593c53d839d80004aa4b8c51211864104f06ace9e22be9c4365b50655ea\")\n        /* \"contracts/GetBTCPrice.sol\":1286:1307  token1 == wbtcAddress */\n      0xffffffffffffffffffffffffffffffffffffffff\n      and\n        /* \"contracts/GetBTCPrice.sol\":1286:1292  token1 */\n      dup2\n        /* \"contracts/GetBTCPrice.sol\":1286:1307  token1 == wbtcAddress */\n      0xffffffffffffffffffffffffffffffffffffffff\n      and\n      eq\n        /* \"contracts/GetBTCPrice.sol\":1261:1307  token0 == usdcAddress && token1 == wbtcAddress */\n    tag_40:\n        /* \"contracts/GetBTCPrice.sol\":1257:1503  if (token0 == usdcAddress && token1 == wbtcAddress) {... */\n      iszero\n      tag_41\n      jumpi\n        /* \"contracts/GetBTCPrice.sol\":1413:1421  reserve1 */\n      dup3\n        /* \"contracts/GetBTCPrice.sol\":1405:1422  uint256(reserve1) */\n      0xffffffffffffffffffffffffffff\n      and\n        /* \"contracts/GetBTCPrice.sol\":1397:1401  1e18 */\n      0x0de0b6b3a7640000\n        /* \"contracts/GetBTCPrice.sol\":1385:1393  reserve0 */\n      dup6\n        /* \"contracts/GetBTCPrice.sol\":1377:1394  uint256(reserve0) */\n      0xffffffffffffffffffffffffffff\n      and\n        /* \"contracts/GetBTCPrice.sol\":1377:1401  uint256(reserve0) * 1e18 */\n      tag_42\n      swap2\n      swap1\n      tag_36\n      jump\t// in\n    tag_42:\n        /* \"contracts/GetBTCPrice.sol\":1376:1422  (uint256(reserve0) * 1e18) / uint256(reserve1) */\n      tag_43\n      swap2\n      swap1\n      tag_38\n      jump\t// in\n    tag_43:\n        /* \"contracts/GetBTCPrice.sol\":1369:1422  return (uint256(reserve0) * 1e18) / uint256(reserve1) */\n      swap6\n      pop\n      pop\n      pop\n      pop\n      pop\n      pop\n      jump(tag_21)\n        /* \"contracts/GetBTCPrice.sol\":1257:1503  if (token0 == usdcAddress && token1 == wbtcAddress) {... */\n    tag_41:\n        /* \"contracts/GetBTCPrice.sol\":1453:1492  revert(\"Pair does not match WBTC-USDT\") */\n      mload(0x40)\n      0x08c379a000000000000000000000000000000000000000000000000000000000\n      dup2\n      mstore\n      0x04\n      add\n      tag_45\n      swap1\n      tag_46\n      jump\t// in\n    tag_45:\n      mload(0x40)\n      dup1\n      swap2\n      sub\n      swap1\n      revert\n        /* \"contracts/GetBTCPrice.sol\":776:1509  function getWBTCPriceInUSDT() external view returns (uint256) {... */\n    tag_21:\n      swap1\n      jump\t// out\n        /* \"contracts/GetBTCPrice.sol\":504:540  address public immutable uniswapPair */\n    tag_19:\n      immutable(\"0x58a280f74f57bf051c40f060139dc747e015be52f68c57e2c4ab2e4bd4146f43\")\n      dup2\n      jump\t// out\n        /* \"#utility.yul\":7:133   */\n    tag_47:\n        /* \"#utility.yul\":44:51   */\n      0x00\n        /* \"#utility.yul\":84:126   */\n      0xffffffffffffffffffffffffffffffffffffffff\n        /* \"#utility.yul\":77:82   */\n      dup3\n        /* \"#utility.yul\":73:127   */\n      and\n        /* \"#utility.yul\":62:127   */\n      swap1\n      pop\n        /* \"#utility.yul\":7:133   */\n      swap2\n      swap1\n      pop\n      jump\t// out\n        /* \"#utility.yul\":139:235   */\n    tag_48:\n        /* \"#utility.yul\":176:183   */\n      0x00\n        /* \"#utility.yul\":205:229   */\n      tag_71\n        /* \"#utility.yul\":223:228   */\n      dup3\n        /* \"#utility.yul\":205:229   */\n      tag_47\n      jump\t// in\n    tag_71:\n        /* \"#utility.yul\":194:229   */\n      swap1\n      pop\n        /* \"#utility.yul\":139:235   */\n      swap2\n      swap1\n      pop\n      jump\t// out\n        /* \"#utility.yul\":241:359   */\n    tag_49:\n        /* \"#utility.yul\":328:352   */\n      tag_73\n        /* \"#utility.yul\":346:351   */\n      dup2\n        /* \"#utility.yul\":328:352   */\n      tag_48\n      jump\t// in\n    tag_73:\n        /* \"#utility.yul\":323:326   */\n      dup3\n        /* \"#utility.yul\":316:353   */\n      mstore\n        /* \"#utility.yul\":241:359   */\n      pop\n      pop\n      jump\t// out\n        /* \"#utility.yul\":365:587   */\n    tag_10:\n        /* \"#utility.yul\":458:462   */\n      0x00\n        /* \"#utility.yul\":496:498   */\n      0x20\n        /* \"#utility.yul\":485:494   */\n      dup3\n        /* \"#utility.yul\":481:499   */\n      add\n        /* \"#utility.yul\":473:499   */\n      swap1\n      pop\n        /* \"#utility.yul\":509:580   */\n      tag_75\n        /* \"#utility.yul\":577:578   */\n      0x00\n        /* \"#utility.yul\":566:575   */\n      dup4\n        /* \"#utility.yul\":562:579   */\n      add\n        /* \"#utility.yul\":553:559   */\n      dup5\n        /* \"#utility.yul\":509:580   */\n      tag_49\n      jump\t// in\n    tag_75:\n        /* \"#utility.yul\":365:587   */\n      swap3\n      swap2\n      pop\n      pop\n      jump\t// out\n        /* \"#utility.yul\":593:670   */\n    tag_50:\n        /* \"#utility.yul\":630:637   */\n      0x00\n        /* \"#utility.yul\":659:664   */\n      dup2\n        /* \"#utility.yul\":648:664   */\n      swap1\n      pop\n        /* \"#utility.yul\":593:670   */\n      swap2\n      swap1\n      pop\n      jump\t// out\n        /* \"#utility.yul\":676:794   */\n    tag_51:\n        /* \"#utility.yul\":763:787   */\n      tag_78\n        /* \"#utility.yul\":781:786   */\n      dup2\n        /* \"#utility.yul\":763:787   */\n      tag_50\n      jump\t// in\n    tag_78:\n        /* \"#utility.yul\":758:761   */\n      dup3\n        /* \"#utility.yul\":751:788   */\n      mstore\n        /* \"#utility.yul\":676:794   */\n      pop\n      pop\n      jump\t// out\n        /* \"#utility.yul\":800:1022   */\n    tag_17:\n        /* \"#utility.yul\":893:897   */\n      0x00\n        /* \"#utility.yul\":931:933   */\n      0x20\n        /* \"#utility.yul\":920:929   */\n      dup3\n        /* \"#utility.yul\":916:934   */\n      add\n        /* \"#utility.yul\":908:934   */\n      swap1\n      pop\n        /* \"#utility.yul\":944:1015   */\n      tag_80\n        /* \"#utility.yul\":1012:1013   */\n      0x00\n        /* \"#utility.yul\":1001:1010   */\n      dup4\n        /* \"#utility.yul\":997:1014   */\n      add\n        /* \"#utility.yul\":988:994   */\n      dup5\n        /* \"#utility.yul\":944:1015   */\n      tag_51\n      jump\t// in\n    tag_80:\n        /* \"#utility.yul\":800:1022   */\n      swap3\n      swap2\n      pop\n      pop\n      jump\t// out\n        /* \"#utility.yul\":1109:1226   */\n    tag_53:\n        /* \"#utility.yul\":1218:1219   */\n      0x00\n        /* \"#utility.yul\":1215:1216   */\n      dup1\n        /* \"#utility.yul\":1208:1220   */\n      revert\n        /* \"#utility.yul\":1355:1469   */\n    tag_55:\n        /* \"#utility.yul\":1392:1399   */\n      0x00\n        /* \"#utility.yul\":1432:1462   */\n      0xffffffffffffffffffffffffffff\n        /* \"#utility.yul\":1425:1430   */\n      dup3\n        /* \"#utility.yul\":1421:1463   */\n      and\n        /* \"#utility.yul\":1410:1463   */\n      swap1\n      pop\n        /* \"#utility.yul\":1355:1469   */\n      swap2\n      swap1\n      pop\n      jump\t// out\n        /* \"#utility.yul\":1475:1597   */\n    tag_56:\n        /* \"#utility.yul\":1548:1572   */\n      tag_86\n        /* \"#utility.yul\":1566:1571   */\n      dup2\n        /* \"#utility.yul\":1548:1572   */\n      tag_55\n      jump\t// in\n    tag_86:\n        /* \"#utility.yul\":1541:1546   */\n      dup2\n        /* \"#utility.yul\":1538:1573   */\n      eq\n        /* \"#utility.yul\":1528:1591   */\n      tag_87\n      jumpi\n        /* \"#utility.yul\":1587:1588   */\n      0x00\n        /* \"#utility.yul\":1584:1585   */\n      dup1\n        /* \"#utility.yul\":1577:1589   */\n      revert\n        /* \"#utility.yul\":1528:1591   */\n    tag_87:\n        /* \"#utility.yul\":1475:1597   */\n      pop\n      jump\t// out\n        /* \"#utility.yul\":1603:1746   */\n    tag_57:\n        /* \"#utility.yul\":1660:1665   */\n      0x00\n        /* \"#utility.yul\":1691:1697   */\n      dup2\n        /* \"#utility.yul\":1685:1698   */\n      mload\n        /* \"#utility.yul\":1676:1698   */\n      swap1\n      pop\n        /* \"#utility.yul\":1707:1740   */\n      tag_89\n        /* \"#utility.yul\":1734:1739   */\n      dup2\n        /* \"#utility.yul\":1707:1740   */\n      tag_56\n      jump\t// in\n    tag_89:\n        /* \"#utility.yul\":1603:1746   */\n      swap3\n      swap2\n      pop\n      pop\n      jump\t// out\n        /* \"#utility.yul\":1752:1845   */\n    tag_58:\n        /* \"#utility.yul\":1788:1795   */\n      0x00\n        /* \"#utility.yul\":1828:1838   */\n      0xffffffff\n        /* \"#utility.yul\":1821:1826   */\n      dup3\n        /* \"#utility.yul\":1817:1839   */\n      and\n        /* \"#utility.yul\":1806:1839   */\n      swap1\n      pop\n        /* \"#utility.yul\":1752:1845   */\n      swap2\n      swap1\n      pop\n      jump\t// out\n        /* \"#utility.yul\":1851:1971   */\n    tag_59:\n        /* \"#utility.yul\":1923:1946   */\n      tag_92\n        /* \"#utility.yul\":1940:1945   */\n      dup2\n        /* \"#utility.yul\":1923:1946   */\n      tag_58\n      jump\t// in\n    tag_92:\n        /* \"#utility.yul\":1916:1921   */\n      dup2\n        /* \"#utility.yul\":1913:1947   */\n      eq\n        /* \"#utility.yul\":1903:1965   */\n      tag_93\n      jumpi\n        /* \"#utility.yul\":1961:1962   */\n      0x00\n        /* \"#utility.yul\":1958:1959   */\n      dup1\n        /* \"#utility.yul\":1951:1963   */\n      revert\n        /* \"#utility.yul\":1903:1965   */\n    tag_93:\n        /* \"#utility.yul\":1851:1971   */\n      pop\n      jump\t// out\n        /* \"#utility.yul\":1977:2118   */\n    tag_60:\n        /* \"#utility.yul\":2033:2038   */\n      0x00\n        /* \"#utility.yul\":2064:2070   */\n      dup2\n        /* \"#utility.yul\":2058:2071   */\n      mload\n        /* \"#utility.yul\":2049:2071   */\n      swap1\n      pop\n        /* \"#utility.yul\":2080:2112   */\n      tag_95\n        /* \"#utility.yul\":2106:2111   */\n      dup2\n        /* \"#utility.yul\":2080:2112   */\n      tag_59\n      jump\t// in\n    tag_95:\n        /* \"#utility.yul\":1977:2118   */\n      swap3\n      swap2\n      pop\n      pop\n      jump\t// out\n        /* \"#utility.yul\":2124:2785   */\n    tag_25:\n        /* \"#utility.yul\":2211:2217   */\n      0x00\n        /* \"#utility.yul\":2219:2225   */\n      dup1\n        /* \"#utility.yul\":2227:2233   */\n      0x00\n        /* \"#utility.yul\":2276:2278   */\n      0x60\n        /* \"#utility.yul\":2264:2273   */\n      dup5\n        /* \"#utility.yul\":2255:2262   */\n      dup7\n        /* \"#utility.yul\":2251:2274   */\n      sub\n        /* \"#utility.yul\":2247:2279   */\n      slt\n        /* \"#utility.yul\":2244:2363   */\n      iszero\n      tag_97\n      jumpi\n        /* \"#utility.yul\":2282:2361   */\n      tag_98\n      tag_53\n      jump\t// in\n    tag_98:\n        /* \"#utility.yul\":2244:2363   */\n    tag_97:\n        /* \"#utility.yul\":2402:2403   */\n      0x00\n        /* \"#utility.yul\":2427:2491   */\n      tag_99\n        /* \"#utility.yul\":2483:2490   */\n      dup7\n        /* \"#utility.yul\":2474:2480   */\n      dup3\n        /* \"#utility.yul\":2463:2472   */\n      dup8\n        /* \"#utility.yul\":2459:2481   */\n      add\n        /* \"#utility.yul\":2427:2491   */\n      tag_57\n      jump\t// in\n    tag_99:\n        /* \"#utility.yul\":2417:2491   */\n      swap4\n      pop\n        /* \"#utility.yul\":2373:2501   */\n      pop\n        /* \"#utility.yul\":2540:2542   */\n      0x20\n        /* \"#utility.yul\":2566:2630   */\n      tag_100\n        /* \"#utility.yul\":2622:2629   */\n      dup7\n        /* \"#utility.yul\":2613:2619   */\n      dup3\n        /* \"#utility.yul\":2602:2611   */\n      dup8\n        /* \"#utility.yul\":2598:2620   */\n      add\n        /* \"#utility.yul\":2566:2630   */\n      tag_57\n      jump\t// in\n    tag_100:\n        /* \"#utility.yul\":2556:2630   */\n      swap3\n      pop\n        /* \"#utility.yul\":2511:2640   */\n      pop\n        /* \"#utility.yul\":2679:2681   */\n      0x40\n        /* \"#utility.yul\":2705:2768   */\n      tag_101\n        /* \"#utility.yul\":2760:2767   */\n      dup7\n        /* \"#utility.yul\":2751:2757   */\n      dup3\n        /* \"#utility.yul\":2740:2749   */\n      dup8\n        /* \"#utility.yul\":2736:2758   */\n      add\n        /* \"#utility.yul\":2705:2768   */\n      tag_60\n      jump\t// in\n    tag_101:\n        /* \"#utility.yul\":2695:2768   */\n      swap2\n      pop\n        /* \"#utility.yul\":2650:2778   */\n      pop\n        /* \"#utility.yul\":2124:2785   */\n      swap3\n      pop\n      swap3\n      pop\n      swap3\n      jump\t// out\n        /* \"#utility.yul\":2791:2913   */\n    tag_61:\n        /* \"#utility.yul\":2864:2888   */\n      tag_103\n        /* \"#utility.yul\":2882:2887   */\n      dup2\n        /* \"#utility.yul\":2864:2888   */\n      tag_48\n      jump\t// in\n    tag_103:\n        /* \"#utility.yul\":2857:2862   */\n      dup2\n        /* \"#utility.yul\":2854:2889   */\n      eq\n        /* \"#utility.yul\":2844:2907   */\n      tag_104\n      jumpi\n        /* \"#utility.yul\":2903:2904   */\n      0x00\n        /* \"#utility.yul\":2900:2901   */\n      dup1\n        /* \"#utility.yul\":2893:2905   */\n      revert\n        /* \"#utility.yul\":2844:2907   */\n    tag_104:\n        /* \"#utility.yul\":2791:2913   */\n      pop\n      jump\t// out\n        /* \"#utility.yul\":2919:3062   */\n    tag_62:\n        /* \"#utility.yul\":2976:2981   */\n      0x00\n        /* \"#utility.yul\":3007:3013   */\n      dup2\n        /* \"#utility.yul\":3001:3014   */\n      mload\n        /* \"#utility.yul\":2992:3014   */\n      swap1\n      pop\n        /* \"#utility.yul\":3023:3056   */\n      tag_106\n        /* \"#utility.yul\":3050:3055   */\n      dup2\n        /* \"#utility.yul\":3023:3056   */\n      tag_61\n      jump\t// in\n    tag_106:\n        /* \"#utility.yul\":2919:3062   */\n      swap3\n      swap2\n      pop\n      pop\n      jump\t// out\n        /* \"#utility.yul\":3068:3419   */\n    tag_29:\n        /* \"#utility.yul\":3138:3144   */\n      0x00\n        /* \"#utility.yul\":3187:3189   */\n      0x20\n        /* \"#utility.yul\":3175:3184   */\n      dup3\n        /* \"#utility.yul\":3166:3173   */\n      dup5\n        /* \"#utility.yul\":3162:3185   */\n      sub\n        /* \"#utility.yul\":3158:3190   */\n      slt\n        /* \"#utility.yul\":3155:3274   */\n      iszero\n      tag_108\n      jumpi\n        /* \"#utility.yul\":3193:3272   */\n      tag_109\n      tag_53\n      jump\t// in\n    tag_109:\n        /* \"#utility.yul\":3155:3274   */\n    tag_108:\n        /* \"#utility.yul\":3313:3314   */\n      0x00\n        /* \"#utility.yul\":3338:3402   */\n      tag_110\n        /* \"#utility.yul\":3394:3401   */\n      dup5\n        /* \"#utility.yul\":3385:3391   */\n      dup3\n        /* \"#utility.yul\":3374:3383   */\n      dup6\n        /* \"#utility.yul\":3370:3392   */\n      add\n        /* \"#utility.yul\":3338:3402   */\n      tag_62\n      jump\t// in\n    tag_110:\n        /* \"#utility.yul\":3328:3402   */\n      swap2\n      pop\n        /* \"#utility.yul\":3284:3412   */\n      pop\n        /* \"#utility.yul\":3068:3419   */\n      swap3\n      swap2\n      pop\n      pop\n      jump\t// out\n        /* \"#utility.yul\":3425:3605   */\n    tag_63:\n        /* \"#utility.yul\":3473:3550   */\n      0x4e487b7100000000000000000000000000000000000000000000000000000000\n        /* \"#utility.yul\":3470:3471   */\n      0x00\n        /* \"#utility.yul\":3463:3551   */\n      mstore\n        /* \"#utility.yul\":3570:3574   */\n      0x11\n        /* \"#utility.yul\":3567:3568   */\n      0x04\n        /* \"#utility.yul\":3560:3575   */\n      mstore\n        /* \"#utility.yul\":3594:3598   */\n      0x24\n        /* \"#utility.yul\":3591:3592   */\n      0x00\n        /* \"#utility.yul\":3584:3599   */\n      revert\n        /* \"#utility.yul\":3611:4021   */\n    tag_36:\n        /* \"#utility.yul\":3651:3658   */\n      0x00\n        /* \"#utility.yul\":3674:3694   */\n      tag_113\n        /* \"#utility.yul\":3692:3693   */\n      dup3\n        /* \"#utility.yul\":3674:3694   */\n      tag_50\n      jump\t// in\n    tag_113:\n        /* \"#utility.yul\":3669:3694   */\n      swap2\n      pop\n        /* \"#utility.yul\":3708:3728   */\n      tag_114\n        /* \"#utility.yul\":3726:3727   */\n      dup4\n        /* \"#utility.yul\":3708:3728   */\n      tag_50\n      jump\t// in\n    tag_114:\n        /* \"#utility.yul\":3703:3728   */\n      swap3\n      pop\n        /* \"#utility.yul\":3763:3764   */\n      dup3\n        /* \"#utility.yul\":3760:3761   */\n      dup3\n        /* \"#utility.yul\":3756:3765   */\n      mul\n        /* \"#utility.yul\":3785:3815   */\n      tag_115\n        /* \"#utility.yul\":3803:3814   */\n      dup2\n        /* \"#utility.yul\":3785:3815   */\n      tag_50\n      jump\t// in\n    tag_115:\n        /* \"#utility.yul\":3774:3815   */\n      swap2\n      pop\n        /* \"#utility.yul\":3964:3965   */\n      dup3\n        /* \"#utility.yul\":3955:3962   */\n      dup3\n        /* \"#utility.yul\":3951:3966   */\n      div\n        /* \"#utility.yul\":3948:3949   */\n      dup5\n        /* \"#utility.yul\":3945:3967   */\n      eq\n        /* \"#utility.yul\":3925:3926   */\n      dup4\n        /* \"#utility.yul\":3918:3927   */\n      iszero\n        /* \"#utility.yul\":3898:3981   */\n      or\n        /* \"#utility.yul\":3875:4014   */\n      tag_116\n      jumpi\n        /* \"#utility.yul\":3994:4012   */\n      tag_117\n      tag_63\n      jump\t// in\n    tag_117:\n        /* \"#utility.yul\":3875:4014   */\n    tag_116:\n        /* \"#utility.yul\":3659:4021   */\n      pop\n        /* \"#utility.yul\":3611:4021   */\n      swap3\n      swap2\n      pop\n      pop\n      jump\t// out\n        /* \"#utility.yul\":4027:4207   */\n    tag_64:\n        /* \"#utility.yul\":4075:4152   */\n      0x4e487b7100000000000000000000000000000000000000000000000000000000\n        /* \"#utility.yul\":4072:4073   */\n      0x00\n        /* \"#utility.yul\":4065:4153   */\n      mstore\n        /* \"#utility.yul\":4172:4176   */\n      0x12\n        /* \"#utility.yul\":4169:4170   */\n      0x04\n        /* \"#utility.yul\":4162:4177   */\n      mstore\n        /* \"#utility.yul\":4196:4200   */\n      0x24\n        /* \"#utility.yul\":4193:4194   */\n      0x00\n        /* \"#utility.yul\":4186:4201   */\n      revert\n        /* \"#utility.yul\":4213:4398   */\n    tag_38:\n        /* \"#utility.yul\":4253:4254   */\n      0x00\n        /* \"#utility.yul\":4270:4290   */\n      tag_120\n        /* \"#utility.yul\":4288:4289   */\n      dup3\n        /* \"#utility.yul\":4270:4290   */\n      tag_50\n      jump\t// in\n    tag_120:\n        /* \"#utility.yul\":4265:4290   */\n      swap2\n      pop\n        /* \"#utility.yul\":4304:4324   */\n      tag_121\n        /* \"#utility.yul\":4322:4323   */\n      dup4\n        /* \"#utility.yul\":4304:4324   */\n      tag_50\n      jump\t// in\n    tag_121:\n        /* \"#utility.yul\":4299:4324   */\n      swap3\n      pop\n        /* \"#utility.yul\":4343:4344   */\n      dup3\n        /* \"#utility.yul\":4333:4368   */\n      tag_122\n      jumpi\n        /* \"#utility.yul\":4348:4366   */\n      tag_123\n      tag_64\n      jump\t// in\n    tag_123:\n        /* \"#utility.yul\":4333:4368   */\n    tag_122:\n        /* \"#utility.yul\":4390:4391   */\n      dup3\n        /* \"#utility.yul\":4387:4388   */\n      dup3\n        /* \"#utility.yul\":4383:4392   */\n      div\n        /* \"#utility.yul\":4378:4392   */\n      swap1\n      pop\n        /* \"#utility.yul\":4213:4398   */\n      swap3\n      swap2\n      pop\n      pop\n      jump\t// out\n        /* \"#utility.yul\":4404:4573   */\n    tag_65:\n        /* \"#utility.yul\":4488:4499   */\n      0x00\n        /* \"#utility.yul\":4522:4528   */\n      dup3\n        /* \"#utility.yul\":4517:4520   */\n      dup3\n        /* \"#utility.yul\":4510:4529   */\n      mstore\n        /* \"#utility.yul\":4562:4566   */\n      0x20\n        /* \"#utility.yul\":4557:4560   */\n      dup3\n        /* \"#utility.yul\":4553:4567   */\n      add\n        /* \"#utility.yul\":4538:4567   */\n      swap1\n      pop\n        /* \"#utility.yul\":4404:4573   */\n      swap3\n      swap2\n      pop\n      pop\n      jump\t// out\n        /* \"#utility.yul\":4579:4758   */\n    tag_66:\n        /* \"#utility.yul\":4719:4750   */\n      0x5061697220646f6573206e6f74206d6174636820574254432d55534454000000\n        /* \"#utility.yul\":4715:4716   */\n      0x00\n        /* \"#utility.yul\":4707:4713   */\n      dup3\n        /* \"#utility.yul\":4703:4717   */\n      add\n        /* \"#utility.yul\":4696:4751   */\n      mstore\n        /* \"#utility.yul\":4579:4758   */\n      pop\n      jump\t// out\n        /* \"#utility.yul\":4764:5130   */\n    tag_67:\n        /* \"#utility.yul\":4906:4909   */\n      0x00\n        /* \"#utility.yul\":4927:4994   */\n      tag_127\n        /* \"#utility.yul\":4991:4993   */\n      0x1d\n        /* \"#utility.yul\":4986:4989   */\n      dup4\n        /* \"#utility.yul\":4927:4994   */\n      tag_65\n      jump\t// in\n    tag_127:\n        /* \"#utility.yul\":4920:4994   */\n      swap2\n      pop\n        /* \"#utility.yul\":5003:5096   */\n      tag_128\n        /* \"#utility.yul\":5092:5095   */\n      dup3\n        /* \"#utility.yul\":5003:5096   */\n      tag_66\n      jump\t// in\n    tag_128:\n        /* \"#utility.yul\":5121:5123   */\n      0x20\n        /* \"#utility.yul\":5116:5119   */\n      dup3\n        /* \"#utility.yul\":5112:5124   */\n      add\n        /* \"#utility.yul\":5105:5124   */\n      swap1\n      pop\n        /* \"#utility.yul\":4764:5130   */\n      swap2\n      swap1\n      pop\n      jump\t// out\n        /* \"#utility.yul\":5136:5555   */\n    tag_46:\n        /* \"#utility.yul\":5302:5306   */\n      0x00\n        /* \"#utility.yul\":5340:5342   */\n      0x20\n        /* \"#utility.yul\":5329:5338   */\n      dup3\n        /* \"#utility.yul\":5325:5343   */\n      add\n        /* \"#utility.yul\":5317:5343   */\n      swap1\n      pop\n        /* \"#utility.yul\":5389:5398   */\n      dup2\n        /* \"#utility.yul\":5383:5387   */\n      dup2\n        /* \"#utility.yul\":5379:5399   */\n      sub\n        /* \"#utility.yul\":5375:5376   */\n      0x00\n        /* \"#utility.yul\":5364:5373   */\n      dup4\n        /* \"#utility.yul\":5360:5377   */\n      add\n        /* \"#utility.yul\":5353:5400   */\n      mstore\n        /* \"#utility.yul\":5417:5548   */\n      tag_130\n        /* \"#utility.yul\":5543:5547   */\n      dup2\n        /* \"#utility.yul\":5417:5548   */\n      tag_67\n      jump\t// in\n    tag_130:\n        /* \"#utility.yul\":5409:5548   */\n      swap1\n      pop\n        /* \"#utility.yul\":5136:5555   */\n      swap2\n      swap1\n      pop\n      jump\t// out\n\n    auxdata: 0xa2646970667358221220bc4d2808a13e6a54c4fc7216ee7096184786f5c9824f2b650a21b2f846a674fb64736f6c634300081a0033\n}\n",
				"bytecode": {
					"linkReferences": {},
					"object": "60e060405234801561000f575f80fd5b506040516109ca3803806109ca83398181016040528101906100319190610133565b8273ffffffffffffffffffffffffffffffffffffffff1660808173ffffffffffffffffffffffffffffffffffffffff16815250508173ffffffffffffffffffffffffffffffffffffffff1660a08173ffffffffffffffffffffffffffffffffffffffff16815250508073ffffffffffffffffffffffffffffffffffffffff1660c08173ffffffffffffffffffffffffffffffffffffffff1681525050505050610183565b5f80fd5b5f73ffffffffffffffffffffffffffffffffffffffff82169050919050565b5f610102826100d9565b9050919050565b610112816100f8565b811461011c575f80fd5b50565b5f8151905061012d81610109565b92915050565b5f805f6060848603121561014a576101496100d5565b5b5f6101578682870161011f565b93505060206101688682870161011f565b92505060406101798682870161011f565b9150509250925092565b60805160a05160c0516107fc6101ce5f395f818161011201526104b301525f818160c8015281816102df015261037f01525f818160ec0152818161028901526103d501526107fc5ff3fe608060405234801561000f575f80fd5b506004361061004a575f3560e01c806302d454571461004e57806361a2ac391461006c578063915220a11461008a578063c816841b146100a8575b5f80fd5b6100566100c6565b6040516100639190610514565b60405180910390f35b6100746100ea565b6040516100819190610514565b60405180910390f35b61009261010e565b60405161009f9190610545565b60405180910390f35b6100b06104b1565b6040516100bd9190610514565b60405180910390f35b7f000000000000000000000000000000000000000000000000000000000000000081565b7f000000000000000000000000000000000000000000000000000000000000000081565b5f807f000000000000000000000000000000000000000000000000000000000000000090505f808273ffffffffffffffffffffffffffffffffffffffff16630902f1ac6040518163ffffffff1660e01b8152600401606060405180830381865afa15801561017e573d5f803e3d5ffd5b505050506040513d601f19601f820116820180604052508101906101a291906105de565b50915091505f8373ffffffffffffffffffffffffffffffffffffffff16630dfe16816040518163ffffffff1660e01b8152600401602060405180830381865afa1580156101f1573d5f803e3d5ffd5b505050506040513d601f19601f820116820180604052508101906102159190610658565b90505f8473ffffffffffffffffffffffffffffffffffffffff1663d21220a76040518163ffffffff1660e01b8152600401602060405180830381865afa158015610261573d5f803e3d5ffd5b505050506040513d601f19601f820116820180604052508101906102859190610658565b90507f000000000000000000000000000000000000000000000000000000000000000073ffffffffffffffffffffffffffffffffffffffff168273ffffffffffffffffffffffffffffffffffffffff1614801561032d57507f000000000000000000000000000000000000000000000000000000000000000073ffffffffffffffffffffffffffffffffffffffff168173ffffffffffffffffffffffffffffffffffffffff16145b1561037d57836dffffffffffffffffffffffffffff16670de0b6b3a7640000846dffffffffffffffffffffffffffff1661036791906106b0565b610371919061071e565b955050505050506104ae565b7f000000000000000000000000000000000000000000000000000000000000000073ffffffffffffffffffffffffffffffffffffffff168273ffffffffffffffffffffffffffffffffffffffff1614801561042357507f000000000000000000000000000000000000000000000000000000000000000073ffffffffffffffffffffffffffffffffffffffff168173ffffffffffffffffffffffffffffffffffffffff16145b1561047357826dffffffffffffffffffffffffffff16670de0b6b3a7640000856dffffffffffffffffffffffffffff1661045d91906106b0565b610467919061071e565b955050505050506104ae565b6040517f08c379a00000000000000000000000000000000000000000000000000000000081526004016104a5906107a8565b60405180910390fd5b90565b7f000000000000000000000000000000000000000000000000000000000000000081565b5f73ffffffffffffffffffffffffffffffffffffffff82169050919050565b5f6104fe826104d5565b9050919050565b61050e816104f4565b82525050565b5f6020820190506105275f830184610505565b92915050565b5f819050919050565b61053f8161052d565b82525050565b5f6020820190506105585f830184610536565b92915050565b5f80fd5b5f6dffffffffffffffffffffffffffff82169050919050565b61058481610562565b811461058e575f80fd5b50565b5f8151905061059f8161057b565b92915050565b5f63ffffffff82169050919050565b6105bd816105a5565b81146105c7575f80fd5b50565b5f815190506105d8816105b4565b92915050565b5f805f606084860312156105f5576105f461055e565b5b5f61060286828701610591565b935050602061061386828701610591565b9250506040610624868287016105ca565b9150509250925092565b610637816104f4565b8114610641575f80fd5b50565b5f815190506106528161062e565b92915050565b5f6020828403121561066d5761066c61055e565b5b5f61067a84828501610644565b91505092915050565b7f4e487b71000000000000000000000000000000000000000000000000000000005f52601160045260245ffd5b5f6106ba8261052d565b91506106c58361052d565b92508282026106d38161052d565b915082820484148315176106ea576106e9610683565b5b5092915050565b7f4e487b71000000000000000000000000000000000000000000000000000000005f52601260045260245ffd5b5f6107288261052d565b91506107338361052d565b925082610743576107426106f1565b5b828204905092915050565b5f82825260208201905092915050565b7f5061697220646f6573206e6f74206d6174636820574254432d555344540000005f82015250565b5f610792601d8361074e565b915061079d8261075e565b602082019050919050565b5f6020820190508181035f8301526107bf81610786565b905091905056fea2646970667358221220bc4d2808a13e6a54c4fc7216ee7096184786f5c9824f2b650a21b2f846a674fb64736f6c634300081a0033",
					"opcodes": "PUSH1 0xE0 PUSH1 0x40 MSTORE CALLVALUE DUP1 ISZERO PUSH2 0xF JUMPI PUSH0 DUP1 REVERT JUMPDEST POP PUSH1 0x40 MLOAD PUSH2 0x9CA CODESIZE SUB DUP1 PUSH2 0x9CA DUP4 CODECOPY DUP2 DUP2 ADD PUSH1 0x40 MSTORE DUP2 ADD SWAP1 PUSH2 0x31 SWAP2 SWAP1 PUSH2 0x133 JUMP JUMPDEST DUP3 PUSH20 0xFFFFFFFFFFFFFFFFFFFFFFFFFFFFFFFFFFFFFFFF AND PUSH1 0x80 DUP2 PUSH20 0xFFFFFFFFFFFFFFFFFFFFFFFFFFFFFFFFFFFFFFFF AND DUP2 MSTORE POP POP DUP2 PUSH20 0xFFFFFFFFFFFFFFFFFFFFFFFFFFFFFFFFFFFFFFFF AND PUSH1 0xA0 DUP2 PUSH20 0xFFFFFFFFFFFFFFFFFFFFFFFFFFFFFFFFFFFFFFFF AND DUP2 MSTORE POP POP DUP1 PUSH20 0xFFFFFFFFFFFFFFFFFFFFFFFFFFFFFFFFFFFFFFFF AND PUSH1 0xC0 DUP2 PUSH20 0xFFFFFFFFFFFFFFFFFFFFFFFFFFFFFFFFFFFFFFFF AND DUP2 MSTORE POP POP POP POP POP PUSH2 0x183 JUMP JUMPDEST PUSH0 DUP1 REVERT JUMPDEST PUSH0 PUSH20 0xFFFFFFFFFFFFFFFFFFFFFFFFFFFFFFFFFFFFFFFF DUP3 AND SWAP1 POP SWAP2 SWAP1 POP JUMP JUMPDEST PUSH0 PUSH2 0x102 DUP3 PUSH2 0xD9 JUMP JUMPDEST SWAP1 POP SWAP2 SWAP1 POP JUMP JUMPDEST PUSH2 0x112 DUP2 PUSH2 0xF8 JUMP JUMPDEST DUP2 EQ PUSH2 0x11C JUMPI PUSH0 DUP1 REVERT JUMPDEST POP JUMP JUMPDEST PUSH0 DUP2 MLOAD SWAP1 POP PUSH2 0x12D DUP2 PUSH2 0x109 JUMP JUMPDEST SWAP3 SWAP2 POP POP JUMP JUMPDEST PUSH0 DUP1 PUSH0 PUSH1 0x60 DUP5 DUP7 SUB SLT ISZERO PUSH2 0x14A JUMPI PUSH2 0x149 PUSH2 0xD5 JUMP JUMPDEST JUMPDEST PUSH0 PUSH2 0x157 DUP7 DUP3 DUP8 ADD PUSH2 0x11F JUMP JUMPDEST SWAP4 POP POP PUSH1 0x20 PUSH2 0x168 DUP7 DUP3 DUP8 ADD PUSH2 0x11F JUMP JUMPDEST SWAP3 POP POP PUSH1 0x40 PUSH2 0x179 DUP7 DUP3 DUP8 ADD PUSH2 0x11F JUMP JUMPDEST SWAP2 POP POP SWAP3 POP SWAP3 POP SWAP3 JUMP JUMPDEST PUSH1 0x80 MLOAD PUSH1 0xA0 MLOAD PUSH1 0xC0 MLOAD PUSH2 0x7FC PUSH2 0x1CE PUSH0 CODECOPY PUSH0 DUP2 DUP2 PUSH2 0x112 ADD MSTORE PUSH2 0x4B3 ADD MSTORE PUSH0 DUP2 DUP2 PUSH1 0xC8 ADD MSTORE DUP2 DUP2 PUSH2 0x2DF ADD MSTORE PUSH2 0x37F ADD MSTORE PUSH0 DUP2 DUP2 PUSH1 0xEC ADD MSTORE DUP2 DUP2 PUSH2 0x289 ADD MSTORE PUSH2 0x3D5 ADD MSTORE PUSH2 0x7FC PUSH0 RETURN INVALID PUSH1 0x80 PUSH1 0x40 MSTORE CALLVALUE DUP1 ISZERO PUSH2 0xF JUMPI PUSH0 DUP1 REVERT JUMPDEST POP PUSH1 0x4 CALLDATASIZE LT PUSH2 0x4A JUMPI PUSH0 CALLDATALOAD PUSH1 0xE0 SHR DUP1 PUSH4 0x2D45457 EQ PUSH2 0x4E JUMPI DUP1 PUSH4 0x61A2AC39 EQ PUSH2 0x6C JUMPI DUP1 PUSH4 0x915220A1 EQ PUSH2 0x8A JUMPI DUP1 PUSH4 0xC816841B EQ PUSH2 0xA8 JUMPI JUMPDEST PUSH0 DUP1 REVERT JUMPDEST PUSH2 0x56 PUSH2 0xC6 JUMP JUMPDEST PUSH1 0x40 MLOAD PUSH2 0x63 SWAP2 SWAP1 PUSH2 0x514 JUMP JUMPDEST PUSH1 0x40 MLOAD DUP1 SWAP2 SUB SWAP1 RETURN JUMPDEST PUSH2 0x74 PUSH2 0xEA JUMP JUMPDEST PUSH1 0x40 MLOAD PUSH2 0x81 SWAP2 SWAP1 PUSH2 0x514 JUMP JUMPDEST PUSH1 0x40 MLOAD DUP1 SWAP2 SUB SWAP1 RETURN JUMPDEST PUSH2 0x92 PUSH2 0x10E JUMP JUMPDEST PUSH1 0x40 MLOAD PUSH2 0x9F SWAP2 SWAP1 PUSH2 0x545 JUMP JUMPDEST PUSH1 0x40 MLOAD DUP1 SWAP2 SUB SWAP1 RETURN JUMPDEST PUSH2 0xB0 PUSH2 0x4B1 JUMP JUMPDEST PUSH1 0x40 MLOAD PUSH2 0xBD SWAP2 SWAP1 PUSH2 0x514 JUMP JUMPDEST PUSH1 0x40 MLOAD DUP1 SWAP2 SUB SWAP1 RETURN JUMPDEST PUSH32 0x0 DUP2 JUMP JUMPDEST PUSH32 0x0 DUP2 JUMP JUMPDEST PUSH0 DUP1 PUSH32 0x0 SWAP1 POP PUSH0 DUP1 DUP3 PUSH20 0xFFFFFFFFFFFFFFFFFFFFFFFFFFFFFFFFFFFFFFFF AND PUSH4 0x902F1AC PUSH1 0x40 MLOAD DUP2 PUSH4 0xFFFFFFFF AND PUSH1 0xE0 SHL DUP2 MSTORE PUSH1 0x4 ADD PUSH1 0x60 PUSH1 0x40 MLOAD DUP1 DUP4 SUB DUP2 DUP7 GAS STATICCALL ISZERO DUP1 ISZERO PUSH2 0x17E JUMPI RETURNDATASIZE PUSH0 DUP1 RETURNDATACOPY RETURNDATASIZE PUSH0 REVERT JUMPDEST POP POP POP POP PUSH1 0x40 MLOAD RETURNDATASIZE PUSH1 0x1F NOT PUSH1 0x1F DUP3 ADD AND DUP3 ADD DUP1 PUSH1 0x40 MSTORE POP DUP2 ADD SWAP1 PUSH2 0x1A2 SWAP2 SWAP1 PUSH2 0x5DE JUMP JUMPDEST POP SWAP2 POP SWAP2 POP PUSH0 DUP4 PUSH20 0xFFFFFFFFFFFFFFFFFFFFFFFFFFFFFFFFFFFFFFFF AND PUSH4 0xDFE1681 PUSH1 0x40 MLOAD DUP2 PUSH4 0xFFFFFFFF AND PUSH1 0xE0 SHL DUP2 MSTORE PUSH1 0x4 ADD PUSH1 0x20 PUSH1 0x40 MLOAD DUP1 DUP4 SUB DUP2 DUP7 GAS STATICCALL ISZERO DUP1 ISZERO PUSH2 0x1F1 JUMPI RETURNDATASIZE PUSH0 DUP1 RETURNDATACOPY RETURNDATASIZE PUSH0 REVERT JUMPDEST POP POP POP POP PUSH1 0x40 MLOAD RETURNDATASIZE PUSH1 0x1F NOT PUSH1 0x1F DUP3 ADD AND DUP3 ADD DUP1 PUSH1 0x40 MSTORE POP DUP2 ADD SWAP1 PUSH2 0x215 SWAP2 SWAP1 PUSH2 0x658 JUMP JUMPDEST SWAP1 POP PUSH0 DUP5 PUSH20 0xFFFFFFFFFFFFFFFFFFFFFFFFFFFFFFFFFFFFFFFF AND PUSH4 0xD21220A7 PUSH1 0x40 MLOAD DUP2 PUSH4 0xFFFFFFFF AND PUSH1 0xE0 SHL DUP2 MSTORE PUSH1 0x4 ADD PUSH1 0x20 PUSH1 0x40 MLOAD DUP1 DUP4 SUB DUP2 DUP7 GAS STATICCALL ISZERO DUP1 ISZERO PUSH2 0x261 JUMPI RETURNDATASIZE PUSH0 DUP1 RETURNDATACOPY RETURNDATASIZE PUSH0 REVERT JUMPDEST POP POP POP POP PUSH1 0x40 MLOAD RETURNDATASIZE PUSH1 0x1F NOT PUSH1 0x1F DUP3 ADD AND DUP3 ADD DUP1 PUSH1 0x40 MSTORE POP DUP2 ADD SWAP1 PUSH2 0x285 SWAP2 SWAP1 PUSH2 0x658 JUMP JUMPDEST SWAP1 POP PUSH32 0x0 PUSH20 0xFFFFFFFFFFFFFFFFFFFFFFFFFFFFFFFFFFFFFFFF AND DUP3 PUSH20 0xFFFFFFFFFFFFFFFFFFFFFFFFFFFFFFFFFFFFFFFF AND EQ DUP1 ISZERO PUSH2 0x32D JUMPI POP PUSH32 0x0 PUSH20 0xFFFFFFFFFFFFFFFFFFFFFFFFFFFFFFFFFFFFFFFF AND DUP2 PUSH20 0xFFFFFFFFFFFFFFFFFFFFFFFFFFFFFFFFFFFFFFFF AND EQ JUMPDEST ISZERO PUSH2 0x37D JUMPI DUP4 PUSH14 0xFFFFFFFFFFFFFFFFFFFFFFFFFFFF AND PUSH8 0xDE0B6B3A7640000 DUP5 PUSH14 0xFFFFFFFFFFFFFFFFFFFFFFFFFFFF AND PUSH2 0x367 SWAP2 SWAP1 PUSH2 0x6B0 JUMP JUMPDEST PUSH2 0x371 SWAP2 SWAP1 PUSH2 0x71E JUMP JUMPDEST SWAP6 POP POP POP POP POP POP PUSH2 0x4AE JUMP JUMPDEST PUSH32 0x0 PUSH20 0xFFFFFFFFFFFFFFFFFFFFFFFFFFFFFFFFFFFFFFFF AND DUP3 PUSH20 0xFFFFFFFFFFFFFFFFFFFFFFFFFFFFFFFFFFFFFFFF AND EQ DUP1 ISZERO PUSH2 0x423 JUMPI POP PUSH32 0x0 PUSH20 0xFFFFFFFFFFFFFFFFFFFFFFFFFFFFFFFFFFFFFFFF AND DUP2 PUSH20 0xFFFFFFFFFFFFFFFFFFFFFFFFFFFFFFFFFFFFFFFF AND EQ JUMPDEST ISZERO PUSH2 0x473 JUMPI DUP3 PUSH14 0xFFFFFFFFFFFFFFFFFFFFFFFFFFFF AND PUSH8 0xDE0B6B3A7640000 DUP6 PUSH14 0xFFFFFFFFFFFFFFFFFFFFFFFFFFFF AND PUSH2 0x45D SWAP2 SWAP1 PUSH2 0x6B0 JUMP JUMPDEST PUSH2 0x467 SWAP2 SWAP1 PUSH2 0x71E JUMP JUMPDEST SWAP6 POP POP POP POP POP POP PUSH2 0x4AE JUMP JUMPDEST PUSH1 0x40 MLOAD PUSH32 0x8C379A000000000000000000000000000000000000000000000000000000000 DUP2 MSTORE PUSH1 0x4 ADD PUSH2 0x4A5 SWAP1 PUSH2 0x7A8 JUMP JUMPDEST PUSH1 0x40 MLOAD DUP1 SWAP2 SUB SWAP1 REVERT JUMPDEST SWAP1 JUMP JUMPDEST PUSH32 0x0 DUP2 JUMP JUMPDEST PUSH0 PUSH20 0xFFFFFFFFFFFFFFFFFFFFFFFFFFFFFFFFFFFFFFFF DUP3 AND SWAP1 POP SWAP2 SWAP1 POP JUMP JUMPDEST PUSH0 PUSH2 0x4FE DUP3 PUSH2 0x4D5 JUMP JUMPDEST SWAP1 POP SWAP2 SWAP1 POP JUMP JUMPDEST PUSH2 0x50E DUP2 PUSH2 0x4F4 JUMP JUMPDEST DUP3 MSTORE POP POP JUMP JUMPDEST PUSH0 PUSH1 0x20 DUP3 ADD SWAP1 POP PUSH2 0x527 PUSH0 DUP4 ADD DUP5 PUSH2 0x505 JUMP JUMPDEST SWAP3 SWAP2 POP POP JUMP JUMPDEST PUSH0 DUP2 SWAP1 POP SWAP2 SWAP1 POP JUMP JUMPDEST PUSH2 0x53F DUP2 PUSH2 0x52D JUMP JUMPDEST DUP3 MSTORE POP POP JUMP JUMPDEST PUSH0 PUSH1 0x20 DUP3 ADD SWAP1 POP PUSH2 0x558 PUSH0 DUP4 ADD DUP5 PUSH2 0x536 JUMP JUMPDEST SWAP3 SWAP2 POP POP JUMP JUMPDEST PUSH0 DUP1 REVERT JUMPDEST PUSH0 PUSH14 0xFFFFFFFFFFFFFFFFFFFFFFFFFFFF DUP3 AND SWAP1 POP SWAP2 SWAP1 POP JUMP JUMPDEST PUSH2 0x584 DUP2 PUSH2 0x562 JUMP JUMPDEST DUP2 EQ PUSH2 0x58E JUMPI PUSH0 DUP1 REVERT JUMPDEST POP JUMP JUMPDEST PUSH0 DUP2 MLOAD SWAP1 POP PUSH2 0x59F DUP2 PUSH2 0x57B JUMP JUMPDEST SWAP3 SWAP2 POP POP JUMP JUMPDEST PUSH0 PUSH4 0xFFFFFFFF DUP3 AND SWAP1 POP SWAP2 SWAP1 POP JUMP JUMPDEST PUSH2 0x5BD DUP2 PUSH2 0x5A5 JUMP JUMPDEST DUP2 EQ PUSH2 0x5C7 JUMPI PUSH0 DUP1 REVERT JUMPDEST POP JUMP JUMPDEST PUSH0 DUP2 MLOAD SWAP1 POP PUSH2 0x5D8 DUP2 PUSH2 0x5B4 JUMP JUMPDEST SWAP3 SWAP2 POP POP JUMP JUMPDEST PUSH0 DUP1 PUSH0 PUSH1 0x60 DUP5 DUP7 SUB SLT ISZERO PUSH2 0x5F5 JUMPI PUSH2 0x5F4 PUSH2 0x55E JUMP JUMPDEST JUMPDEST PUSH0 PUSH2 0x602 DUP7 DUP3 DUP8 ADD PUSH2 0x591 JUMP JUMPDEST SWAP4 POP POP PUSH1 0x20 PUSH2 0x613 DUP7 DUP3 DUP8 ADD PUSH2 0x591 JUMP JUMPDEST SWAP3 POP POP PUSH1 0x40 PUSH2 0x624 DUP7 DUP3 DUP8 ADD PUSH2 0x5CA JUMP JUMPDEST SWAP2 POP POP SWAP3 POP SWAP3 POP SWAP3 JUMP JUMPDEST PUSH2 0x637 DUP2 PUSH2 0x4F4 JUMP JUMPDEST DUP2 EQ PUSH2 0x641 JUMPI PUSH0 DUP1 REVERT JUMPDEST POP JUMP JUMPDEST PUSH0 DUP2 MLOAD SWAP1 POP PUSH2 0x652 DUP2 PUSH2 0x62E JUMP JUMPDEST SWAP3 SWAP2 POP POP JUMP JUMPDEST PUSH0 PUSH1 0x20 DUP3 DUP5 SUB SLT ISZERO PUSH2 0x66D JUMPI PUSH2 0x66C PUSH2 0x55E JUMP JUMPDEST JUMPDEST PUSH0 PUSH2 0x67A DUP5 DUP3 DUP6 ADD PUSH2 0x644 JUMP JUMPDEST SWAP2 POP POP SWAP3 SWAP2 POP POP JUMP JUMPDEST PUSH32 0x4E487B7100000000000000000000000000000000000000000000000000000000 PUSH0 MSTORE PUSH1 0x11 PUSH1 0x4 MSTORE PUSH1 0x24 PUSH0 REVERT JUMPDEST PUSH0 PUSH2 0x6BA DUP3 PUSH2 0x52D JUMP JUMPDEST SWAP2 POP PUSH2 0x6C5 DUP4 PUSH2 0x52D JUMP JUMPDEST SWAP3 POP DUP3 DUP3 MUL PUSH2 0x6D3 DUP2 PUSH2 0x52D JUMP JUMPDEST SWAP2 POP DUP3 DUP3 DIV DUP5 EQ DUP4 ISZERO OR PUSH2 0x6EA JUMPI PUSH2 0x6E9 PUSH2 0x683 JUMP JUMPDEST JUMPDEST POP SWAP3 SWAP2 POP POP JUMP JUMPDEST PUSH32 0x4E487B7100000000000000000000000000000000000000000000000000000000 PUSH0 MSTORE PUSH1 0x12 PUSH1 0x4 MSTORE PUSH1 0x24 PUSH0 REVERT JUMPDEST PUSH0 PUSH2 0x728 DUP3 PUSH2 0x52D JUMP JUMPDEST SWAP2 POP PUSH2 0x733 DUP4 PUSH2 0x52D JUMP JUMPDEST SWAP3 POP DUP3 PUSH2 0x743 JUMPI PUSH2 0x742 PUSH2 0x6F1 JUMP JUMPDEST JUMPDEST DUP3 DUP3 DIV SWAP1 POP SWAP3 SWAP2 POP POP JUMP JUMPDEST PUSH0 DUP3 DUP3 MSTORE PUSH1 0x20 DUP3 ADD SWAP1 POP SWAP3 SWAP2 POP POP JUMP JUMPDEST PUSH32 0x5061697220646F6573206E6F74206D6174636820574254432D55534454000000 PUSH0 DUP3 ADD MSTORE POP JUMP JUMPDEST PUSH0 PUSH2 0x792 PUSH1 0x1D DUP4 PUSH2 0x74E JUMP JUMPDEST SWAP2 POP PUSH2 0x79D DUP3 PUSH2 0x75E JUMP JUMPDEST PUSH1 0x20 DUP3 ADD SWAP1 POP SWAP2 SWAP1 POP JUMP JUMPDEST PUSH0 PUSH1 0x20 DUP3 ADD SWAP1 POP DUP2 DUP2 SUB PUSH0 DUP4 ADD MSTORE PUSH2 0x7BF DUP2 PUSH2 0x786 JUMP JUMPDEST SWAP1 POP SWAP2 SWAP1 POP JUMP INVALID LOG2 PUSH5 0x6970667358 0x22 SLT KECCAK256 0xBC 0x4D 0x28 ADDMOD LOG1 RETURNDATACOPY PUSH11 0x54C4FC7216EE7096184786 CREATE2 0xC9 DUP3 0x4F 0x2B PUSH6 0xA21B2F846A6 PUSH21 0xFB64736F6C634300081A0033000000000000000000 "
				},
				"gasEstimates": {
					"creation": {
						"codeDepositCost": "408800",
						"executionCost": "infinite",
						"totalCost": "infinite"
					},
					"external": {
						"getWBTCPriceInUSDT()": "infinite",
						"uniswapPair()": "infinite",
						"usdcAddress()": "infinite",
						"wbtcAddress()": "infinite"
					}
				},
				"methodIdentifiers": {
					"getWBTCPriceInUSDT()": "915220a1",
					"uniswapPair()": "c816841b",
					"usdcAddress()": "02d45457",
					"wbtcAddress()": "61a2ac39"
				}
			},
			"storageLayout": {
				"storage": [],
				"types": null
			},
			"userdoc": {
				"kind": "user",
				"methods": {},
				"version": 1
			}
		}
	}
}